{
  "contractName": "shop",
  "abi": [
    {
      "anonymous": false,
      "inputs": [
        {
          "indexed": false,
          "internalType": "uint256",
          "name": "id",
          "type": "uint256"
        },
        {
          "indexed": false,
          "internalType": "string",
          "name": "name",
          "type": "string"
        },
        {
          "indexed": false,
          "internalType": "string",
          "name": "description",
          "type": "string"
        },
        {
          "indexed": false,
          "internalType": "bool",
          "name": "sold",
          "type": "bool"
        },
        {
          "indexed": false,
          "internalType": "address",
          "name": "owner",
          "type": "address"
        },
        {
          "indexed": false,
          "internalType": "uint256",
          "name": "price",
          "type": "uint256"
        }
      ],
      "name": "createdProduct",
      "type": "event"
    },
    {
      "anonymous": false,
      "inputs": [
        {
          "indexed": false,
          "internalType": "uint256",
          "name": "id",
          "type": "uint256"
        },
        {
          "indexed": false,
          "internalType": "string",
          "name": "name",
          "type": "string"
        },
        {
          "indexed": false,
          "internalType": "string",
          "name": "description",
          "type": "string"
        },
        {
          "indexed": false,
          "internalType": "bool",
          "name": "sold",
          "type": "bool"
        },
        {
          "indexed": false,
          "internalType": "address",
          "name": "owner",
          "type": "address"
        },
        {
          "indexed": false,
          "internalType": "uint256",
          "name": "price",
          "type": "uint256"
        }
      ],
      "name": "purshasedProduct",
      "type": "event"
    },
    {
      "inputs": [],
      "name": "count",
      "outputs": [
        {
          "internalType": "uint256",
          "name": "",
          "type": "uint256"
        }
      ],
      "stateMutability": "view",
      "type": "function"
    },
    {
      "inputs": [],
      "name": "name",
      "outputs": [
        {
          "internalType": "string",
          "name": "",
          "type": "string"
        }
      ],
      "stateMutability": "view",
      "type": "function"
    },
    {
      "inputs": [
        {
          "internalType": "uint256",
          "name": "",
          "type": "uint256"
        }
      ],
      "name": "shopProducts",
      "outputs": [
        {
          "internalType": "uint256",
          "name": "id",
          "type": "uint256"
        },
        {
          "internalType": "string",
          "name": "name",
          "type": "string"
        },
        {
          "internalType": "string",
          "name": "description",
          "type": "string"
        },
        {
          "internalType": "bool",
          "name": "sold",
          "type": "bool"
        },
        {
          "internalType": "address payable",
          "name": "owner",
          "type": "address"
        },
        {
          "internalType": "uint256",
          "name": "price",
          "type": "uint256"
        }
      ],
      "stateMutability": "view",
      "type": "function"
    },
    {
      "inputs": [
        {
          "internalType": "string",
          "name": "_name",
          "type": "string"
        },
        {
          "internalType": "uint256",
          "name": "price",
          "type": "uint256"
        },
        {
          "internalType": "string",
          "name": "description",
          "type": "string"
        }
      ],
      "name": "createProduct",
      "outputs": [],
      "stateMutability": "nonpayable",
      "type": "function"
    },
    {
      "inputs": [
        {
          "internalType": "uint256",
          "name": "id",
          "type": "uint256"
        }
      ],
      "name": "purchaseProduct",
      "outputs": [],
      "stateMutability": "payable",
      "type": "function"
    }
  ],
  "bytecode": "0x60c0604052600a608090815269617669746f207765623360b01b60a052600090610029908261010b565b5060006001908155600280546001600160a01b03191673b708dd7b157e16082ba713cb988c83f0a22177de17905560035534801561006657600080fd5b506101c9565b634e487b7160e01b600052604160045260246000fd5b600181811c9082168061009657607f821691505b6020821081036100b657634e487b7160e01b600052602260045260246000fd5b50919050565b601f82111561010657806000526020600020601f840160051c810160208510156100e35750805b601f840160051c820191505b8181101561010357600081556001016100ef565b50505b505050565b81516001600160401b038111156101245761012461006c565b610138816101328454610082565b846100bc565b6020601f82116001811461016c57600083156101545750848201515b600019600385901b1c1916600184901b178455610103565b600084815260208120601f198516915b8281101561019c578785015182556020948501946001909201910161017c565b50848210156101ba5786840151600019600387901b60f8161c191681555b50505050600190811b01905550565b610c01806101d86000396000f3fe60806040526004361061004a5760003560e01c806306661abd1461004f57806306fdde031461007857806313dccad81461009a57806338e76a03146100cc578063ff38ec0f146100e1575b600080fd5b34801561005b57600080fd5b5061006560015481565b6040519081526020015b60405180910390f35b34801561008457600080fd5b5061008d610101565b60405161006f91906107b7565b3480156100a657600080fd5b506100ba6100b53660046107d1565b61018f565b60405161006f969594939291906107ea565b6100df6100da3660046107d1565b6102e2565b005b3480156100ed57600080fd5b506100df6100fc3660046108e2565b6105c3565b6000805461010e90610954565b80601f016020809104026020016040519081016040528092919081815260200182805461013a90610954565b80156101875780601f1061015c57610100808354040283529160200191610187565b820191906000526020600020905b81548152906001019060200180831161016a57829003601f168201915b505050505081565b600460205260009081526040902080546001820180549192916101b190610954565b80601f01602080910402602001604051908101604052809291908181526020018280546101dd90610954565b801561022a5780601f106101ff5761010080835404028352916020019161022a565b820191906000526020600020905b81548152906001019060200180831161020d57829003601f168201915b50505050509080600201805461023f90610954565b80601f016020809104026020016040519081016040528092919081815260200182805461026b90610954565b80156102b85780601f1061028d576101008083540402835291602001916102b8565b820191906000526020600020905b81548152906001019060200180831161029b57829003601f168201915b505050506003830154600490930154919260ff8116926101009091046001600160a01b0316915086565b6000811180156102f457506001548111155b6103455760405162461bcd60e51b815260206004820152601c60248201527f746869732070726f6475637420646f6573206e6f74206578697374210000000060448201526064015b60405180910390fd5b60008181526004602052604090206003015461010090046001600160a01b031633036103b35760405162461bcd60e51b815260206004820152601f60248201527f796f752063616e27742062617920796f7572206f776e2070726f647563742100604482015260640161033c565b600081815260046020819052604090912001543410156104155760405162461bcd60e51b815260206004820152601e60248201527f796f7520646f6e2774206861766520656e6f7567682062616c616e6365210000604482015260640161033c565b60008181526004602052604090206003015460ff161561046e5760405162461bcd60e51b81526020600482015260146024820152731c1c9bd91d58dd08185b1c9958591e481cdbdb1960621b604482015260640161033c565b60008181526004602052604081206003908101805460ff1933610100908102919091166001600160a81b031983161760011790925591546001600160a01b03919092041691906064906104c190346109a4565b6104cb91906109c1565b905060006104d982346109e3565b6040519091506001600160a01b0384169082156108fc029083906000818181858888f19350505050158015610512573d6000803e3d6000fd5b506002546040516001600160a01b039091169083156108fc029084906000818181858888f1935050505015801561054d573d6000803e3d6000fd5b5060008481526004602081905260409182902060038101549181015492517f774e548f7e62f9435c7e5c18fad9ead8889211b85f06d87606eac29cde5c27df936105b5938993600180820194600290920193909261010090046001600160a01b031691610a79565b60405180910390a150505050565b60008351116106085760405162461bcd60e51b8152602060048201526011602482015270746865206e616d6520697320656d70747960781b604482015260640161033c565b60008151116106595760405162461bcd60e51b815260206004820152601e60248201527f796f75206d75737420696e636c7564652061206465736372697074696f6e0000604482015260640161033c565b6001805490600061066983610aa4565b90915550506040805160c08101825260018054808352602080840188815284860187905260006060860181905233608087015260a086018990529283526004909152939020825181559251919291908201906106c59082610b0c565b50604082015160028201906106da9082610b0c565b50606082015160038201805460808501516001600160a01b031661010002610100600160a81b0319931515939093166001600160a81b03199091161791909117905560a0909101516004909101556001546040517f65b4b66a453c8af891f453fe40e6bb45c3dd4fbb634458401c3274bad0372d6e916107649186908590600090339089906107ea565b60405180910390a1505050565b6000815180845260005b818110156107975760208185018101518683018201520161077b565b506000602082860101526020601f19601f83011685010191505092915050565b6020815260006107ca6020830184610771565b9392505050565b6000602082840312156107e357600080fd5b5035919050565b86815260c06020820152600061080360c0830188610771565b82810360408401526108158188610771565b951515606084015250506001600160a01b0392909216608083015260a0909101529392505050565b634e487b7160e01b600052604160045260246000fd5b600082601f83011261086457600080fd5b813567ffffffffffffffff81111561087e5761087e61083d565b604051601f8201601f19908116603f0116810167ffffffffffffffff811182821017156108ad576108ad61083d565b6040528181528382016020018510156108c557600080fd5b816020850160208301376000918101602001919091529392505050565b6000806000606084860312156108f757600080fd5b833567ffffffffffffffff81111561090e57600080fd5b61091a86828701610853565b93505060208401359150604084013567ffffffffffffffff81111561093e57600080fd5b61094a86828701610853565b9150509250925092565b600181811c9082168061096857607f821691505b60208210810361098857634e487b7160e01b600052602260045260246000fd5b50919050565b634e487b7160e01b600052601160045260246000fd5b80820281158282048414176109bb576109bb61098e565b92915050565b6000826109de57634e487b7160e01b600052601260045260246000fd5b500490565b818103818111156109bb576109bb61098e565b60008154610a0381610954565b808552600182168015610a1d5760018114610a3957610a70565b60ff1983166020870152602082151560051b8701019350610a70565b84600052602060002060005b83811015610a675781546020828a010152600182019150602081019050610a45565b87016020019450505b50505092915050565b86815260c060208201526000610a9260c08301886109f6565b828103604084015261081581886109f6565b600060018201610ab657610ab661098e565b5060010190565b601f821115610b0757806000526020600020601f840160051c81016020851015610ae45750805b601f840160051c820191505b81811015610b045760008155600101610af0565b50505b505050565b815167ffffffffffffffff811115610b2657610b2661083d565b610b3a81610b348454610954565b84610abd565b6020601f821160018114610b6e5760008315610b565750848201515b600019600385901b1c1916600184901b178455610b04565b600084815260208120601f198516915b82811015610b9e5787850151825560209485019460019092019101610b7e565b5084821015610bbc5786840151600019600387901b60f8161c191681555b50505050600190811b0190555056fea264697066735822122066bb9d7feb76499a3e5ef7c697d1f040e77ebf0656a2b4d49e449d12baf1879364736f6c634300081a0033",
  "immutableReferences": {},
  "source": "// SPDX-License-Identifier: MIT\r\npragma solidity ^0.8.26;\r\ncontract shop{\r\n    string public name = \"avito web3\";\r\n    uint public count = 0;\r\n    address payable private owner = payable(0xb708dd7b157e16082bA713CB988c83f0A22177dE);\r\n    uint private fee = 1;//1%\r\n    struct Product{\r\n        uint id;\r\n        string name;\r\n        string description;\r\n        bool sold;\r\n        address payable owner;\r\n        uint price;\r\n    }\r\n    //events : are a way to communicate with ui and to informe any updates outnote(truffle and hardhat)\r\n    event createdProduct(\r\n        uint id,\r\n        string name,\r\n        string description,\r\n        bool sold,\r\n        address owner,\r\n        uint price\r\n    );\r\n    event purshasedProduct(\r\n        uint id,\r\n        string name,\r\n        string description,\r\n        bool sold,\r\n        address owner,\r\n        uint price\r\n    );\r\n    mapping (uint => Product) public shopProducts;\r\n    //function to add a product\r\n    function createProduct(string memory _name, uint price, string memory description)public {\r\n        require(bytes(_name).length > 0, \"the name is empty\");\r\n        require(bytes(description).length > 0, \"you must include a description\");\r\n        count++;\r\n        shopProducts[count] = Product(count, _name, description, false, payable (msg.sender), price);\r\n        emit createdProduct(count, _name, description, false, msg.sender, price);\r\n    }\r\n    //function to buy a product\r\n    function purchaseProduct(uint id) public payable {\r\n        require(id > 0 && id <= count, \"this product does not exist!\");\r\n        require(msg.sender != shopProducts[id].owner, \"you can't bay your own product!\");\r\n        require(msg.value >= shopProducts[id].price, \"you don't have enough balance!\");\r\n        require(!shopProducts[id].sold,\"product already sold\");\r\n\r\n        address payable seller = shopProducts[id].owner;\r\n        shopProducts[id].owner = payable (msg.sender);\r\n        shopProducts[id].sold = true;\r\n\r\n        //transfer the fee to the owner\r\n        uint transactionFee = (msg.value * fee) / 100;\r\n        uint sellerAmount = msg.value - transactionFee;\r\n\r\n        seller.transfer(sellerAmount);\r\n        owner.transfer(transactionFee);\r\n\r\n        emit purshasedProduct(id, shopProducts[id].name, shopProducts[id].description, true, shopProducts[id].owner, shopProducts[id].price);\r\n    }\r\n}",
  "sourcePath": "C:\\Users\\youss\\Desktop\\avitoweb3\\contracts\\contract.sol",
  "compiler": {
    "name": "solc",
    "version": "0.8.26+commit.8a97fa7a.Emscripten.clang"
  },
  "schemaVersion": "3.4.16",
  "updatedAt": "2024-09-08T15:25:15.196Z",
  "devdoc": {
    "kind": "dev",
    "methods": {},
    "version": 1
  },
  "userdoc": {
    "kind": "user",
    "methods": {},
    "version": 1
  }
}